:020000040000FA
:10000000A80B002015140000F93B00004514000067
:10001000451400004514000045140000451400007C
:100020000000000000000000000000005D12000061
:10003000451400000000000015120000F73A00000F
:10004000D5130000D5130000D5130000D513000010
:10005000D5130000D5130000D5130000D513000000
:10006000D5130000D5130000D5130000D5130000F0
:10007000D5130000D5130000D5130000D5130000E0
:10008000D5130000D5130000D5130000D5130000D0
:10009000D5130000D5130000D5130000D5130000C0
:1000A000D5130000D5130000D5130000D5130000B0
:1000B000D5130000D5130000D5130000D5130000A0
:1000C000D5130000D5130000D5130000D513000090
:1000D000D5130000D5130000D5130000D513000080
:1000E000D5130000D5130000D5130000D513000070
:1000F000D5130000D5130000D5130000D513000060
:10010000D5130000D5130000D5130000D51300004F
:10011000D5130000D5130000D5130000D51300003F
:10012000D5130000D5130000D5130000D51300002F
:10013000D5130000D5130000D5130000D51300001F
:10014000D5130000000000000000000000000000C7
:10015000000000000000000000000000000000009F
:10016000000000000000000000000000000000008F
:10017000000000000000000000000000000000007F
:10018000000000000000000000000000000000006F
:10019000000000000000000000000000000000005F
:1001A000000000000000000000000000000000004F
:1001B000000000000000000000000000000000003F
:1001C000000000000000000000000000000000002F
:1001D000000000000000000000000000000000001F
:1001E000000000000000000000000000000000000F
:1001F00000000000000000000000000000000000FF
:10020000DEE61E284CBBCE8F025B00003C000000E7
:10021000008000000100000000000000000000005D
:10022000FFFF02910000000000000000000000003D
:1002300000000000000000000000000053B94AB9AF
:10024000002908BF00281CBF4FF0FF314FF0FF30DE
:1002500000F06CB9ADF1080C6DE904CE00F006F8C1
:10026000DDF804E0DDE9022304B070472DE9F04732
:10027000089D04468846002B7DD18A4217463FD907
:10028000B2FA82F242B1C2F120009140974024FAC2
:1002900000F0944040EA01084FEA174C230C1FFA83
:1002A00087FEB8FBFCF60CFB168106FB0EF043EA5A
:1002B0000143984205D9FB1802D2984200F22481EA
:1002C000013E191AA3B2B1FBFCF00CFB101100FBAC
:1002D0000EFE43EA0144A64505D93C1902D2A645C3
:1002E00000F20F81013840EA0640A4EB0E0400261C
:1002F0001DB1D4400023C5E900433146BDE8F08775
:1003000002B9FFDEB2FA82F2002A50D1CB1B4FEACB
:10031000174E1FFA87F80126210CB3FBFEFC0EFBDB
:100320001C300B4608FB0CF941EA004189450AD90B
:1003300079182CBF01230023894502D9002B00F036
:10034000D9800CF1FF3CA1EB0901A3B2B1FBFEF097
:100350000EFB101108FB00F843EA0144A04505D943
:100360003C1902D2A04500F2C9800138A4EB080470
:1003700040EA0C40BCE78B4209D9002D00F0B18067
:100380000026C5E9000130463146BDE8F087B3FAE2
:1003900083F6002E46D18B42C0F0A680824240F206
:1003A000A3803046002DA8D0C5E90048A5E79740B6
:1003B000C2F1200301FA02F04FEA174ED94024FAA5
:1003C00003F31FFA87F894400343B1FBFEF01E0CC1
:1003D0000EFB101100FB08FC46EA01418C4509D9CF
:1003E00079182CBF012600268C4502D9002E00F07A
:1003F00093800138A1EB0C019BB2B1FBFEF60EFB22
:10040000161106FB08FC43EA01418C4505D9791811
:1004100002D28C4500F28780013EA1EB0C0346EA34
:10042000004679E7C6F1200703FA06F402FA06FC53
:1004300001FA06FEFA4020FA07F8F94000FA06F33E
:10044000224348EA0E044FEA12484FEA144E1FFABC
:1004500082F9B1FBF8FA08FB1A110AFB09F04EEA1F
:10046000014E70450AD912EB0E0E2CBF012100215E
:10047000704501D9002952D00AF1FF3AAEEB000EC7
:10048000A4B2BEFBF8F008FB10EE00FB09F944EA49
:100490000E4EF14505D912EB0E0E01D2F14538D8BA
:1004A000013840EA0A40AEEB090EA0FB0C89CE45AC
:1004B00041464C4602D306D1434504D20138B8EB3D
:1004C0000C0169EB020415B35A1A6EEB040EF240EC
:1004D0000EFA07F72EFA06F300261743C5E9007354
:1004E0000BE72E46284608E7841A61EB030101203A
:1004F000884657E7ACF1020C394424E702383C4403
:1005000034E702383C44EEE6023E3B44D9E62E4650
:10051000F3E602389644C4E7023839446AE7AAF1A0
:10052000020A9644AAE7023E394476E7704700BFC4
:100530002DE9E04F2746A046A146A246A346A44681
:100540002DED108B4FF0000545EC185B45EC195A6A
:1005500045EC1A5A45EC1B5A45EC1C5A45EC1D5A01
:1005600045EC1E5A45EC1F5AF1EE105A4FF66076D4
:10057000C0F6FF763540E1EE105A84F30088254638
:100580002646A447BDEC108BBDE8E08F0B68013315
:100590000B60014B1B681847000000202DE9F04F4D
:1005A0002DED028B83B00E9C9A46012CB8BF01241E
:1005B000012B0CBF302320231546064608EE103AC7
:1005C00001274FF00A080022DFF874B0B5FBFBF9F1
:1005D0000AB9AB4520D809F130000091B04701229B
:1005E000013700990A2308F1FF38B8F1010F0BFB1E
:1005F0001955BBFBF3FBE9D105F130000091B04781
:10060000BAF1030F009902D1E41B002C11DC03B0F6
:10061000BDEC028BBDE8F08F4445E3DBBAF1020F7D
:10062000E0D818EE100ACDE900120137B047019A60
:10063000D7E720200091013CB0470099E5E700BFD3
:1006400000CA9A3B2DE9F04F002705468B464FF034
:10065000FF39B8461C468DB0531E0393002605E0B3
:100660006EB9252800F071815946A847039B13F8FD
:10067000010F03930028F3D10DB0BDE8F08F7A2865
:100680000AD8622810D8302854D045D8252800F040
:100690005A812D2800F05F8159462520A8475946E8
:1006A000039B1878A847D9E7A0F16303172BF3D869
:1006B00001A252F823F000BF3F09000083070000A9
:1006C00099060000990600009906000065070000E1
:1006D00083070000990600009906000065070000E6
:1006E0009906000099060000990600002508000000
:1006F00099060000990600000F0900009906000005
:10070000F307000099060000990600002107000089
:10071000990600006507000039281AD95828BBD16E
:10072000039B1B78702B40F0888054F8043B002218
:10073000069390E0B9F1000F0EDAB8F1000F00F067
:100740000D81A0F13009B8F1000F08BF4FF0020889
:100750008CE7B9F1000FF4DB0A2303FB0909A9F1C7
:100760003009F0E7682803D1682F06D148277DE7D4
:100770006C2802D16C2F00F0F480002F8CD107463A
:1007800074E77A2F02D154F8046B21E06C2FFAD071
:100790004C2FF8D1073424F00704F4E80223CDE904
:1007A0000423049B4FF0FF3013F10041059B089197
:1007B00043F1000109910021DDE90823994208BFB6
:1007C000904204D25946284603F00BF846E7049EAF
:1007D000002E05DA59462D20A847764209F1FF3947
:1007E00043463246CDF8009059462846FFF7D6FEDC
:1007F00034E77A2F02D154F8042B0FE06C2FFAD093
:100800004C2FF8D100214FF0FF30073424F00704BB
:10081000F4E80223994208BF9042D3D34346CDF86F
:100820000090E1E759463020A84759467820A8476C
:100830004FF008094FF0010872E76C2F3FF475AFD5
:100840004C2F7FF472AFE31D23F007031C4654F8CE
:10085000082B06925A68002110234FF0400A049199
:100860000791AAF1040A0699CAF1200EAAF1200CF8
:1008700021FA0AF002FA0EFE40EA0E0022FA0CFCFF
:1008800040EA0C0010F00F0007D1079911B9BAF136
:10089000000F25D14FF0300C05E009288CBF4FF038
:1008A000570C4FF0300C6044594640B20A920793FF
:1008B000A847049B0A9A01330493079BBAF1000FDF
:1008C00023D1B8F1030F7FF4C9AE049BC3EB4906F3
:1008D000002E7FF7C3AE59462020A847013EF7E718
:1008E000591E99450A9107DBB8F1010F06D1594607
:1008F00030200B92A8470B9A0A9BB2E7B8F1020F7F
:10090000FAD1594620200B92F4E70796A9E754F84C
:10091000046BB24653461AF8010B68B9B8F1030FDD
:1009200021D19E1BA9EB0606002E7FF797AE5946F4
:100930002020A847013EF7E75946A847EAE759466D
:1009400054F8040BAEE65946ACE63746B0464FF0D5
:10095000FF3901268AE64FF0030887E64FF00108C9
:1009600084E64C2782E6064680E600BF07B50B46C4
:10097000002102460191034801A9FFF763FE03B07D
:100980005DF804FB8D0500004FF02002EFF31183AA
:1009900082F31188BFF36F8F0121044AC2F840151A
:1009A00083F31188BFF36F8F0020704700900350CE
:1009B00020B1034B800143F001031847704700BF8B
:1009C00090420000F8B50C24114F0546FB6804FB6B
:1009D0000034012363724FF02003EFF3118183F39E
:1009E0001188BFF36F8F23682BB166681A68B34212
:1009F000226008BF626081F31188BFF36F8F03B973
:100A0000F8BD2946D3E901623846B047E3E700BFA5
:100A10007000002008B5114B1A686AB14FF05022DF
:100A2000D2F80423D10707D500221A600C4BDB68EB
:100A3000587A08B9FFF7C6FF0A4B1A6862B14FF03F
:100A40005022D2F80423920706D5002201201A6012
:100A5000BDE80840FFF7B6BF08BD00BF0051005019
:100A60007000002004510050821C084B22F07F428D
:100A7000C3F84025D3F80425904200D17047D3F83D
:100A80000405821C22F07F42F2E700BF00500150B3
:100A90000022064B1A60064AD3F800041368C01AF5
:100AA00020F07F400344136001F046BF40510150E5
:100AB0002801002038B5144801F046F900B38368D6
:100AC000002401211B6898474FF400120F4D104B72
:100AD000C5F808451C600F4B0121C3F880214FF475
:100AE00080332246C5F80433152000F0D7FB1520CB
:100AF00000F0C4FB01232046074A13602B6038BD79
:100B00004FF0FF30FBE700BFB2460000005001503D
:100B10004051015000E100E008500150F8B52C4B65
:100B20002C4CD3F804252C4BB0F1FF3F08BF2046D6
:100B30001968521A22F07F43120236D4013820EA93
:100B4000E070A042A8BF204601331844A04294BFE1
:100B50000C180C194FF4803000271D4B1F4EC3F8A2
:100B60000803D3F80415D3F8402521F07F45521A25
:100B700022F07F42012A3760C3F840551D46C3F872
:100B8000440303D10F2003F0F4F937604FF400124F
:100B9000134BC3F88021D5F80405231A23F07F43B3
:100BA000012B04D1FFF760FF0BE00020CCE724F01D
:100BB0007F43C5F84035D5F80405241A023C2302CA
:100BC000F0D44FF48032024BC3F80423F8BD00BFC9
:100BD00000500150FFFF7F002801002040510150CC
:100BE00000E100E04FF02002EFF3118382F311885F
:100BF000BFF36F8F064AD2F80405064A1268801ABE
:100C000020F07F4083F31188BFF36F8F704700BFE0
:100C10000050015028010020F7B500281C460D4661
:100C200014BF4FF400534FF40043204E954232D38B
:100C300002FB03F0013A4B4300901D4802F0DFFD38
:100C40001C4B14F0100F1C491C4808BF194602F039
:100C5000D6FD14F0040F14BF72212D21184802F0A4
:100C6000CEFD14F0020F14BF77212D21144802F09D
:100C7000C6FD14F0010F0CBF2D217821104802F0A1
:100C8000BEFD6C210E4802F0BAFD0E4803B0BDE86F
:100C9000F04002F0B4BD28B105F5E07746F82740F2
:100CA0000135C3E705F5C077F8E700BF0030005015
:100CB0001145000005450000FC440000904600007E
:100CC0002B4500005F48000008B543B2002B0CDB49
:100CD000012200F01F018A405B091049203341F8CE
:100CE0002320BFF34F8FBFF36F8F830003F1A04327
:100CF00003F540533128D3F8002806D0002A07DA3C
:100D000002F00302023A012A02D8054AC3F8002879
:100D1000002102F042FF002008BD00BF00E100E01A
:100D20000001008030B54FF440444CF2040585B01A
:100D30004FF440412C4802F062FD21682B4802F03C
:100D40005EFD29682A4802F05AFD102200216846FB
:100D500002F0E1FF236868460093029400F044FE2D
:100D6000012000F071FE002000F05AFE002000F08B
:100D70007FFE0121002000F099FE00F08DFE2C681E
:100D80001C4802F03CFD0820FFF79EFF24F0010400
:100D9000BFF34F8FBFF36F8F640864002046214676
:100DA00022462346B7EE000AF7EE000AB7EE001A15
:100DB000F7EE001AB7EE002AF7EE002AB7EE003A77
:100DC000F7EE003AB7EE004AF7EE004AB7EE005AE7
:100DD000F7EE005AB7EE006AF7EE006AB7EE007A57
:100DE000F7EE007AFFF7A4FB2E4500004545000012
:100DF0005A450000784500002DE9F8433B4802F0D1
:100E0000FEFC002140F2171308460122FFF704FF01
:100E100040F20713202201210020FFF7FDFE344895
:100E200002F0EDFC334B344AC3F3C431C3F30E0379
:100E3000C3F50043C3F34313C2F80015C2F80435E9
:100E4000D2F80015D2F804252C48520102F0D7FC44
:100E5000274802F0D4FC02F050FE014610B12848A9
:100E600002F0CDFC0024274802F0C9FC40F2171321
:100E7000082200210120FFF7CFFE1F4D40F207138B
:100E8000202208210120FFF7C7FE194802F0B7FC15
:100E9000C5F880441C4802F0B2FC1C4FC5F8C044A1
:100EA000DFF87C801A4DDFF87C906E792146002EA9
:100EB00014BF3B46434648462A6802F0A0FC66B988
:100EC0001448013402F09BFC1A2C05F10805ECD102
:100ED0000748BDE8F84302F092BC2879FFF7F4FE1A
:100EE00008B10D48EDE70D48EBE700BFAE45000047
:100EF0005F480000E07F000000300050D245000055
:100F000018460000484600006A460000A34500005D
:100F1000AC420000934600009A460000A246000042
:100F2000094500008646000010B500284BD0002A75
:100F300049D0264B99423CD9541803F61D239C42B4
:100F40003AD802F0BDFE0020BDE81040714672465E
:100F50007346B7EE000AF7EE000AB7EE001AF7EE96
:100F6000001AB7EE002AF7EE002AB7EE003AF7EEC5
:100F7000003AB7EE004AF7EE004AB7EE005AF7EE35
:100F8000005AB7EE006AF7EE006AB7EE007AF7EEA5
:100F9000007A8EF3008C10B4F1EE10CA4FF6607434
:100FA000C0F6FF740CEA040CE1EE10CA10BCF44663
:100FB0007447074B994203D9064B54189C42C0D939
:100FC0004FF0FF30C0E76FF01500BDE70302FF00F0
:100FD0002F01FF003801FF002DE9F04F81460E463A
:100FE00085B0002954D04FF00008DFF8B8B0DFF822
:100FF000B8A001AF5BF8045B9AE807004D4487E8AE
:1010000007000C223946284602F033FE044608B990
:10101000002D40D108F10108B8F1050FEAD16FF0B9
:101020000D04204605B0B7EE000AF7EE000AB7EE51
:10103000001AF7EE001AB7EE002AF7EE002AB7EE14
:10104000003AF7EE003AB7EE004AF7EE004AB7EE84
:10105000005AF7EE005AB7EE006AF7EE006AB7EEF4
:10106000007ABDE8F04F714672467346F7EE007A9B
:101070008EF3008C10B4F1EE10CA4FF66074C0F617
:10108000FF740CEA040CE1EE10CA10BCF44674477D
:101090006FF01504C5E73C222946304602F010FEE9
:1010A000BFE700BF7C43000060420000014801F040
:1010B000ADBE00BF9043000008B530B143683BB1FE
:1010C000006801F037F8002008BD6FF4E040FBE74E
:1010D0000048F9E7EA8FFFFF38B5044618B90B4B13
:1010E0000B485B689847656855B115F002052068A4
:1010F00007D10146074800F07BFF256000236360AD
:1011000038BD1422002102F006FEF7E7440000205B
:10111000A34700002C01002010B5044618B9144B59
:1011200014485B6898476368CBB92368BBB94FF034
:10113000FF324FF0FF3321460F4800F027FF08B978
:1011400023681BB90A4B0D485B689847142200219D
:10115000206802F0E0FD636843F0020363602068EA
:1011600002F042FE636843F00103636010BD00BFFC
:1011700044000020A34700002C010020C9470000C4
:1011800008B568B1436873B100684FF0FF334FF0A2
:10119000FF3200F057FF054B002818BF184608BD66
:1011A0006FF4E040FBE70248F9E700BFE98FFFFF7B
:1011B000EA8FFFFF08B5064940231422054802F0D4
:1011C000F8FDBDE808400449044801F057BE00BFDF
:1011D000480100202C010020A84300009843000093
:1011E000094A0A4993680968D866196708494B682B
:1011F00043F080534B60002383F31188BFF36F8F5C
:101200009368186F704700BF44070020F843000040
:1012100000ED00E00F498A684FF030001044EFF312
:10122000098C80E8F01F202080F31188BFF36F8FB6
:10123000094F4FF000664A6A8A603E60D06E002314
:10124000D36680F3118802F1300090E8F01F8CF330
:10125000098870474407002004ED00E01EF0040FE9
:101260000CBFEFF30880EFF30980816911F8021CCD
:101270000229FFD001B502F0BBFC01BD43B2002B37
:1012800008DB012200F01F0002FA00F0024A5B09AD
:1012900042F82300704700BF00E100E043B2002B9A
:1012A00001F10101ACBF03F16043064B4FEA41116C
:1012B000C9B2ABBF03F5614300F00F0083F8001320
:1012C0001954704714ED00E0C0E918120A44203A9E
:1012D00022F007021360009B07495360019B21F035
:1012E00001019360029B9161D3604FF08073D361E1
:1012F00000230265C366704719380000F8B51D4623
:1013000006460C4617460023E1EE103A00F0F4F9C9
:10131000084BE21922F007049E60284684F30988EE
:10132000002163B681F31188BFF36F8F0022002381
:1013300002F072FA44070020014910220A60704747
:1013400010ED00E072B6404080F31188BFF36F8F5C
:10135000BFF34F8F30BF62B6BFF36F8F704700BFD0
:1013600030BFFFF7FDBF00BF174A08B5174B22F08B
:101370007F029A60BFF34F8FBFF36F8FD3F888203F
:1013800022F47002C3F88820D3F8882042F4A00227
:10139000C3F888200E4A536823F040435360BFF3DC
:1013A0004F8FBFF36F8F0023E1EE103AEFF31483FA
:1013B00023F0040383F3148800F004FD00F00CFD17
:1013C00000F068F900F03AFD0000000000ED00E0D8
:1013D00030EF00E001B572B60B4A106A00281EBF5C
:1013E0000021116202F0E3FC62B6EFF30580A0F188
:1013F00010004FEAC0000549014409C99847BDE8FB
:101400000140034908470000440700205440000001
:101410005516000002F0B5FA202080F31188084824
:101420004FF40061401880F30988EFF31480022123
:10143000084380F31488BFF36F8FFFF795FF000018
:10144000E80C0020EFF30880EFF30981724601B544
:1014500000F06CF801BD00BF0C4B9A6A9A6A9A6A58
:10146000920708D55A6B9A6A120604D518B19A6A7F
:1014700022F080029A620020044B9A6A9A6A9A6A61
:101480009A6A42F0FF029A620870704700ED00E02D
:101490000D4B9A6A9A6A9A6A920508D59A6B9A6A6B
:1014A000120404D518B19A6A22F400429A6200200C
:1014B000054B9A6A9A6AD20558BF9A6A9A6A42F4A8
:1014C0007F429A620870704700ED00E0074B0020F1
:1014D0009A6A9A6A9A6A9A6A9A6A9A6A9A6A9A6AEC
:1014E0006FEA02426FEA12429A62704700ED00E032
:1014F0000D4B9A695A695A69D0070FD45A699107F6
:101500000CD45A69520709D45A69100706D45A698B
:10151000D10603D45A69920658BF5A695A6942F0F3
:10152000FF025A61704700BFD0ED00E0F0B5414BBB
:1015300000255B688BB0C3F3080385F31188BFF304
:101540006F8F02F07F44B4F17F4F1ED112F001047F
:101550001AD0560602F0080467D482F00402C2F3DF
:10156000800564B1EFF389860022033B8DF80720E4
:10157000042B4BD8DFE803F00B4C50414800EFF34D
:101580008886F1E70E46EFE725462E46ECE7294B25
:10159000DA6A92073AD4DC6A14F0804408D028331F
:1015A0001B78EBB101200DF10701FFF755FF044651
:1015B0009DF8073093B92022314602A802F080FB43
:1015C000099B6DB3C3F3080222B96FEA53236FEA94
:1015D00043230993204602A902F008FB0BB0F0BD9B
:1015E000154B1B782BB101200DF10701FFF750FFC0
:1015F000DDE7124B1F88BFB217B1FFF767FFD6E7D1
:101600000F4B5C69002CD3D0FFF772FF0024CFE7AB
:1016100000200DF10701C8E700200DF10701E5E703
:1016200023F4FF7323F00103D3E7002CAAD106466D
:10163000012599E700ED00E029ED00E02AED00E04A
:10164000D0ED00E0024A536943F010035361704744
:1016500000ED00E0044B9968586A884203D00349C2
:101660004FF080520A6070474407002004ED00E00C
:10167000BFF34F8F0549064BCA6802F4E06213437B
:10168000CB60BFF34F8F00BFFDE700BF00ED00E070
:101690000400FA05002320210348C2180133412B1E
:1016A00082F80013F9D1704700E100E038B5044634
:1016B0004FF02003EFF3118583F31188BFF36F8F91
:1016C00000F0F8FE0A4B9B68A3420BD1094B5A6805
:1016D000C2F3080212B92846FFF782FD5A6842F0A9
:1016E00080525A602846BDE8384002F08FBB00BFE8
:1016F0004407002000ED00E010B50E4B88B00293C7
:101700000D4B0E4C03930E4B0E4A049302AB019308
:1017100001A82346012100F007F9002307930A4B93
:101720000121E41A05A80593069400F007F908B012
:1017300010BD00BF000000200000000000000120DC
:1017400006000100000000200801002010B50B6811
:101750000C7A23F01F0204F01F031A43CB686409BC
:1017600023F01F03044943EA440343F00103886064
:10177000CA600B6110BD00BF90ED00E02DE9F04F95
:1017800007468846144600264A4D85B046450BDA82
:1017900057F82630D3F80490B9F1000F3AD0B9F1D8
:1017A0001F0F05D86FF01504204605B0BDE8F08F77
:1017B00019F01F0FF6D1D3F800A01AF01F0FF1D1C6
:1017C000504602F040FA834609EB0A00013802F065
:1017D0003AFA8345E6D11BF1160FE3D0631E5B4551
:1017E000E0DBC5F808B0E868C5F808B02B6957F821
:1017F000261020F01F0043F01F0AD1E900321A44DE
:10180000984202F1FF3918D1CA4505D15FFA8BF031
:1018100002F0F9F90136B9E7C5F808B0EB6822F033
:101820001F0203F01F031A43EA60E0B202F0EBF973
:1018300010F1160FB6D0441CECE7C5F808B02A69C1
:10184000013B23F01F0302F01F021343CA45E0B21D
:101850002B61EBD002F0D7F910F1160FA2D0C5F82A
:1018600008B0EA689DF808300AF1FF3A62F3040311
:101870008DF808302B699DF808205B0863F3471248
:1018800057F826308DF80820D3E900130B44009355
:1018900023F01F0301305344A3EB0903C0B223F02C
:1018A0001F030F2803933FF67DAF6946FFF74EFFF6
:1018B000C1E700BF90ED00E00522034B5A60BFF383
:1018C0004F8FBFF36F8F704790ED00E0BFF35F8FD6
:1018D0000022014B5A60704790ED00E038B50E4C85
:1018E0002568102D14D8FFF7F1FF00200B4B0C4A90
:1018F0001A63854205D10B4B1D70FFF7DDFF0020F9
:1019000038BD616801EB0011FFF720FF0130F0E7FF
:101910004FF0FF30F4E700BFBC43000090ED00E063
:10192000AAFF4400A007002010B5034C2278FFF75F
:1019300025FF207010BD00BFA00700202DE9F74F44
:10194000264D8A4606464FF00008AB46244FD04548
:101950001BDAD6F80490B9F1000F39D03168084687
:10196000019102F070F90199044609EB0100013878
:1019700002F069F984424FF014021A4B08D06FF05C
:10198000150302FB08F84BF8083003B0BDE8F08FF0
:1019900014F1160F2C60F8D01978A142F5DD02FB86
:1019A00008B0BC60BC60FC6800F10801007B64F317
:1019B0000400087138690C79400860F347140C7111
:1019C000F96821F01F016960396921F01F0129615F
:1019D00008F1010814350C36B9E700BF48060020AD
:1019E00090ED00E0A007002082680C4B9A6003682D
:1019F00083F38888436883F38988027B02F00101BE
:101A0000EFF3948323F00303920748BF43F00203EC
:101A100009B143F0010383F39488704700ED02E0BD
:101A2000084AD36848B123F400531B041B0C43F04D
:101A3000BF6343F40033D36070479BB243F4005359
:101A4000F5E700BF00ED00E0084AD36840B19BB263
:101A500043F4804343F0BF6343F40033D3607047E3
:101A600023F480431B041B0CF4E700BF00ED00E0EF
:101A7000084AD36840B19BB243F0080343F0BF6308
:101A800043F40033D360704723F008031B041B0C9E
:101A9000F4E700BF00ED00E0034AD2F88C3043F4D5
:101AA0004063C2F88C30704700ED00E0084B1A68C4
:101AB00018B142F001021A60704722F001021A6068
:101AC0001A6811B142F00202F5E722F00202F2E7D1
:101AD000D0ED00E02DE9F0430025214C214E54F8D3
:101AE000048CDFF8889085B0A84503D8002005B0A5
:101AF000BDE8F083636A96E807001F6801AB83E8DE
:101B000007000C221946384602F0B3F890B98FB19D
:101B1000636A21691B681A6991420BD19A69A169AC
:101B2000914207D8E169914204D962695B6932EA5E
:101B300003030AD0276A67B10B4801F060FE4040FA
:101B400080F311884FF0040002DFE36801351C4484
:101B5000CAE7484601F053FE636A1F60F5E700BF1D
:101B60003C0200006C420000054800002E480000C6
:101B7000064B1868043B1B68092B05D10138012866
:101B80008CBF002001207047002070473401FF0007
:101B9000054B1868043B1B68092B03D1431E5842B0
:101BA00058417047002070473401FF004E4A08B585
:101BB000136843F002031360FFF7DAFF30B14FF010
:101BC00050230022C3F81421C3F81821FFF7E0FFC7
:101BD00030B10123454A1360A2F63822C2F87835A5
:101BE000434B1B68092B07D1424B1B68022B02BFDA
:101BF0000122414BC3F87825FFF7CAFF10B10E222E
:101C00003E4B1A60FFF7B4FF20B100223C4B1A6034
:101C100001225A600022D30003F57F03D3F800139A
:101C2000013108D0D3F800130132D3F80433B2F5F0
:101C3000807F0B60EFD1334BDA69D1073BD5324B54
:101C40001946D3F80024012AFBD1C3F80425D1F8A2
:101C50000034012BFBD12B4BDA69D20708D5DA69A6
:101C6000294922F00102DA61D1F80024012AFBD1CE
:101C70001A6A01320AD11A6A22F0FF0242F02002E7
:101C80001A62214AD2F80034012BFBD100221E4BEC
:101C9000C3F80425D3F80024012AFBD1BFF34F8FEA
:101CA0001A491B4BCA6802F4E0621343CB60BFF3CE
:101CB0004F8F00BFFDE71B6A0133C0D0134BD3F831
:101CC0008C2042F44062C3F88C20D3F8882042F480
:101CD0007002C3F88820BFF34F8FBFF36F8F0D4B97
:101CE0000D4A1A6008BD00BFD0ED00E0384A005030
:101CF0003001FF003401FF0000400050E4AE03500B
:101D00000C4700500080FF000090035000ED00E001
:101D10000400FA05240000200090D003F8B5002745
:101D2000084B53F82040013053F82060A64200D8F9
:101D3000F8BDD4E900352846984708B105B1AF6031
:101D40000834F3E7E44300000F4B70B505461E4628
:101D50000E4C9C4204D10D4CB44208D1002410E03A
:101D6000A26812B12268AA420BD01034F1E7A3682E
:101D70000BB91034F0E72846216801F06EFF002807
:101D8000F7D1204670BD00BFA000002070000020E9
:101D900008B50B4D4FF02002EFF3118382F3118849
:101DA000BFF36F8F02F0FDF8012104460228D8BF6F
:101DB000084602F006F92C62FFF7C4FAEAE700BF12
:101DC000440700200248034A0021121A01F0A3BF71
:101DD00008010020A407002008B50648064A074964
:101DE000121A01F06DFFBDE80840054A0549064892
:101DF00001F066BF000000200401002078480000C8
:101E0000000000007848000000000020012208B512
:101E1000084B02201A70FFF781FF0320FFF77EFFB7
:101E200000F074FC01F0D4FC034A137B23F001039F
:101E3000137308BDA1070020D00600202DE98048BB
:101E4000DFF8F890A5B089F308880024E023344D2A
:101E50004FF0010B85F82230EC772C766C76AC765F
:101E6000EC766B6A2F4E43F4E0236B626B6ADFF80B
:101E7000D0A043F400236B62AC63FFF7E3FBFFF7F2
:101E80005BFA4FF0FF33AB62EB6240F20113264D79
:101E9000ADF8283007ABAB602046CDE91F44FFF713
:101EA0003DFF0120FFF73AFFDFF8988000F0F6FBD6
:101EB0001E4B6E624FF48062414630460593CDE979
:101EC000034B5346CDE90144009400F0F9FB737BCA
:101ED000304623F00403737301F0B8FF0F23144F4F
:101EE0004FF4A0723846CDE902431249124BCDE9B6
:101EF00004B4CDE9004400F0E3FB7B7B4FF4806247
:101F000023F004037B7305F11803C5E9063341464A
:101F100053463046EF602C75C5F80490FFF7EEF994
:101F200000ED00E0D0060020440700206C480000CF
:101F30005C060020A80B0020911D0000E814002082
:101F40000D1E0000A807002070B50E4B0E4CA342DA
:101F500001D3002070BDD3E9030141EA000212F071
:101F600003020BD19D685A61AA4201D11C33EEE7EE
:101F70005E6901320E6059610144F5E76FF01500AA
:101F8000E8E700BFA0000020A0000020D3B50C4669
:101F900016461F464FF02003EFF3118183F311889B
:101FA000BFF36F8F43695BB123601B684361836933
:101FB00001338361002081F31188BFF36F8F11E03B
:101FC00056EA070203D16FF00B002360F3E70246E5
:101FD000CDE90067044800F009FB18B9034B9B6882
:101FE0005B69236002B0D0BDA20700204407002037
:101FF00070B504460D464FF02003EFF3118683F3CE
:102000001188BFF36F8F01F087FF58B100212A6854
:102010000167426101F01AFF3146BDE8704008488F
:1020200001F0E9BE2B6862691A602B686361A369DD
:10203000013BA36186F31188BFF36F8F70BD00BFB2
:10204000A20700202DE9F341044616461F464FF033
:102050002003EFF3118883F31188BFF36F8FC368F8
:10206000324A6BB180689168884219D056EA0703FA
:1020700018D188F31188BFF36F8F6FF00F000CE059
:10208000916891F90E100133E36093682161A360B8
:1020900088F31188BFF36F8F002002B0BDE8F08194
:1020A0002169F0E790F90E3091F90E109942A8BF1E
:1020B000194621EAE1718B422CDD00F0ABFA0546AE
:1020C00022464146CDE90067194800F08FFA002802
:1020D000E3D04FF02003EFF3118683F31188BFF3B1
:1020E0006F8F236821699C4207D033B193F90E307A
:1020F0009942A8BF194621EAE171A06890F90E3013
:10210000994209D16DB13146094801F074FE6FF072
:102110000A00C2E70025D3E700F07CFA0028F2D1DC
:10212000F0E786F31188BFF36F8FF0E744070020D4
:10213000A207002038B583680446002B36D01E4A1B
:102140009268934235D1DA7B013ADA73C368012B86
:1021500005D0013BC36000F0C3F8002038BD4FF04C
:102160002003EFF3118583F31188BFF36F8F0169AB
:10217000806890F90E30994201D000F04BFA204669
:1021800001F0CAFEA06058B190F90E202261002231
:10219000026701F05BFE2946084801F02CFEDAE7F1
:1021A000E06085F31188BFF36F8FD4E76FF01500FF
:1021B000D4E74FF0FF30D1E744070020A20700200A
:1021C00010B5084C23685BB1FEF70CFD2268064988
:1021D00010440861BDE810400021104601F0F1BE36
:1021E00010BD00BF7C07002044070020F8B50C4656
:1021F0004FF02003EFF3118583F31188BFF36F8F46
:102200004FF4004140F2E73600270022E1FB00676F
:10221000094B30461A6139464FF47A720023FEF7B3
:102220000DF8064B1860064B1C60FFF7C9FF85F3DD
:102230001188BFF36F8FF8BD440700207C07002092
:10224000780700204FF02003EFF3118183F311880A
:10225000BFF36F8F044B9A68D37B013BD37381F339
:102260001188BFF36F8F704744070020094B03F1BB
:102270002802824205D19B688B4202D14B7BDB0650
:1022800006D1D1E9003213605A600023C1E900335E
:10229000704700BF4407002070B5104C064604F19B
:1022A000280001F0C9FD0546A368597B880644BF94
:1022B00041F00801597305B9E5684EB95A7BD20659
:1022C00006D1AA6922B9DA897F2A01D9636270BD71
:1022D000AB4201D0FFF774FF6562F8E744070020C6
:1022E00010B54FF02003EFF3118483F31188BFF38F
:1022F0006F8F084B00209A68D37B0133D373FFF7AD
:10230000CBFF84F31188BFF36F8FBDE8104001F05D
:1023100089BD00BF4407002070B4437BDB062AD18F
:10232000836943BB154A114651F8284F8C4218BFA8
:102330002346002B38BF0023D46AB3B190F90E6056
:1023400093F90E50AE4203DBA3420ED01B68F4E7B4
:102350005A68C0E9003210605860437B63F07F0325
:10236000437370BC0020FFF797BFC0E90014D36A25
:102370001860D062F1E770BC704700BF44070020CE
:1023800010B54FF02002EFF3118482F31188BFF3F0
:102390006F8F427B510704D484F31188BFF36F8F92
:1023A00010BD22F004024273FFF7B6FF2146BDE8DC
:1023B0001040014801F01FBDA20700200146F8B5FA
:1023C0004FF02003EFF3118483F31188BFF36F8F75
:1023D00090F90D30002B02DA1948FFF747FF194A30
:1023E000104650F8283FD56A834208BF0023002BCF
:1023F00038BF0023EBB191F90E7093F90E60B7422C
:1024000003DB9D4215D01B68F4E75868C1E9003032
:10241000016059604B7B906863F07F034B73431AF4
:1024200058425841FFF738FF84F31188BFF36F8F8C
:10243000F8BDC1E90005D36A1960D162EAE700BFBF
:102440006C0700204407002038B5154A154B146866
:1024500001469868A0421C4603D1BDE83840FFF70A
:10246000AFBE00251560104A1268B2B1C2897F2A3A
:1024700013D80E4A90F90E50126895420DDB0C4AA3
:1024800090420AD0826942B91A698A4202DCFFF797
:1024900095FFE2E7521A1A6138BD00232361FBE77A
:1024A00074070020440700207C07002078070020E4
:1024B0005C060020836D2DE9F041044603B1984786
:1024C00004F1180001F057FD4FF02003EFF31186DF
:1024D00083F31188BFF36F8F637BD80623D1A26982
:1024E0000ABB190607D521461E48FFF7BFFE637BCE
:1024F00003F07F0363731C4B9868021B50425041EA
:10250000FFF7CAFE0027637B04F1280843F00803A5
:102510006373A56A454500D095B986F31188BFF36A
:102520006F8FBDE8F0819B07ECD52146A068FFF7CF
:102530009DFE637B23F0020363730023A360E1E746
:1025400005F1180001F017FDA8682946FFF78EFE77
:102550006B7B284623F002036B73AF602F67FFF796
:10256000DBFED6E76C0700204407002008B590F991
:102570000D300146002B06DA0748FFF777FE4B7B4C
:1025800003F07F034B73054B9868431A5842584138
:10259000BDE80840FFF780BE6C070020440700201C
:1025A0002DE9F041064614461D464FF02003EFF397
:1025B000118783F31188BFF36F8F01F082FC87F3DB
:1025C0001188BFF36F8F6B1C08BFB4F1FF3F08D0B9
:1025D00022462B4606F118000349BDE8F04100F001
:1025E00031B9BDE8F08100BF6D3E000010B50C466A
:1025F000064B11469868064B1860DDE90223FFF789
:10260000CFFF2046BDE81040FEF7EABD440700209A
:10261000740700202DE9F04104464FF02003EFF34A
:10262000118883F31188BFF36F8F437B4EB2DB06B3
:102630002ED1856965BB184F214607F12800FFF7A9
:1026400015FEBB6AFA6A834218BF1D46002D38BFCB
:102650000025A673B5B195F90E10B14203DCAA426C
:1026600010D02D68F6E76A68C4E9005214606C6007
:102670000120FFF711FE012088F31188BFF36F8F4F
:10268000BDE8F081C4E90002FB6A1C60FC62EFE770
:102690000020A673F0E700BF440700200021044B90
:1026A000084603F12802C3E90A22FFF79FBD00BFD5
:1026B00044070020014B9868704700BF4407002082
:1026C000F0B500F12805C0E90A5504254573002539
:1026D000044687B0DDE90F67CDE9036786730E9E78
:1026E000C0E9065502960D9E077301960C9EC573B0
:1026F0000096FEF7E9FD044BC4E915559B6803B14C
:102700009B6EA36607B0F0BD440700202DE9F04F93
:10271000DFF8B4902B4DC84687B04D4505F1300425
:102720000DD3FFF78FFD4FF40049264CDFF89CA036
:10273000444521D307B0BDE8F04FFFF7D1BD54F8B1
:10274000043C059354F8103C049354F8143C039350
:1027500054F8183C029354F81C3C019354F8203C64
:10276000009354E90A2354E90C01FFF7A9FF54F838
:10277000303C5D652546D0E7616A4B1C17D040F2BE
:10278000E73B4FF0000C21EAE171C9FB01BC0023DB
:102790004FF47A7258466146FDF750FD0027064611
:1027A00056EA0703256804D12846FFF7E9FD3034CF
:1027B000BEE702463B46514605F1180000F042F8DC
:1027C000F5E700BFA0000020A00000206D3E000043
:1027D000034B1B680BB9FEF705BA0020704700BF1A
:1027E00080070020036840B1074A5268904204D035
:1027F0001BB19A6881680A449A60426813605A6003
:102800000023C0E900337047280000200B4B10B5AF
:102810001C689C4208BF0024FFF7DAFF54B1A3688C
:10282000181A20EAE070064B1B6913B19842A8BF42
:10283000184610BD6FF00040F5E700BF28000020EB
:10284000440700202DE9F74F019119464B1C08BFA2
:10285000B2F1FF3F824661D06FF001034FF0FF3BC2
:10286000541C41F10005B3EB04086BEB0509B8F10A
:10287000000F79F100030FDBFFF7AAFF6FF00103F0
:102880002B4AD2E9001C5B1A6BEB0C021E1B62EB9D
:102890000507341A67EBE075019BCAF80C304FF05E
:1028A0002003EFF3118683F31188BFF36F8FFFF7D7
:1028B0008FFF012C75F10003B8BF01241D4B20448C
:1028C0001A68CAF808009A4201D05C6852B95A687E
:1028D000CAF80030CAF804205A68C2F800A0C3F849
:1028E00004A00DE09068DAF80810884219DD411A5A
:1028F00091605168CAE90021C1F800A0C2F804A0A3
:102900001A689A4206D0924504D1FFF77FFF002152
:10291000FEF704F986F31188BFF36F8F03B0BDE8AB
:10292000F08F091A9442CAF80810D0D01268CDE787
:1029300008010020280000202DE9F0470646FFF797
:1029400083FD4FF02003EFF3118483F31188BFF36D
:102950006F8FDFF884801F4DC146DFF880A02E60A6
:10296000DAF800002A685045D8E9006705D020B1A0
:102970008368934213DD9B1A8360B61847EBE277B6
:10298000C9E9006700262E60FFF740FF3146FEF7D9
:10299000C5F884F31188BFF36F8FBDE8F087F61890
:1029A00047EBE377D31A2B6000238360C8E9006705
:1029B000FFF718FF84F31188BFF36F8FC368984740
:1029C0004FF02003EFF3118483F31188BFF36F8F6F
:1029D000C6E700BF80070020080100202800002073
:1029E00038B5064C064DAC4201D3002038BD204618
:1029F000D4E9011201F000FB1434F4E7A000002038
:102A0000A000002001F045B90A46002101F083B979
:102A100010B5114800F048F800B110BD0F4800F0A3
:102A200043F80028F9D10E4C204600F03DF800286C
:102A3000F3D10C4B0C481C6000F036F8014600281E
:102A4000EBD100F02DF8044608B1204610BD00F08F
:102A500051F82046FAE700BF3C000020300000207B
:102A600038000020400000203400002008B508484D
:102A700000F024F8074800F021F8074800F01EF89D
:102A8000064800F01BF8BDE8084000F00BB800BF96
:102A90003C000020300000203800002034000020DE
:102AA00000207047704700BF08B5034B02681B68E1
:102AB00010689847002008BD4C00002008B5034B63
:102AC00002685B6810689847002008BD4C00002031
:102AD0000268024B10689B68184700BF4C0000203A
:102AE00008B5034B0268DB6810689847002008BDF2
:102AF0004C00002070B5094C094D2069AB6898471F
:102B000018B1084B08485B6898470021074AEB68F2
:102B100011602069BDE87040184700BF5C000020CC
:102B20004C00002044000020FC43000084070020EB
:102B3000F8B51A4C1A4D0746AB6820699847E8B9B2
:102B4000184E33687FB93BB90120174A1749C2F8BC
:102B500000050A68002AFCD101333360EB68206964
:102B600098470020F8BD002BF8D0012B08D0013B7E
:102B700033602069EB6898470020F3E70C48F8BD04
:102B80000A4A1368002BFCD1074A6FF07E40C2F856
:102B9000003500F021F83368E9E700BF5C00002051
:102BA0004C0000208407002000008450101984503D
:102BB000E98FFFFF0020704700207047430503D5D1
:102BC0004FF0FF32024B1A60024B1860704700BF93
:102BD00008118450081A8450014B1860704700BFD8
:102BE000041A845008B100F003B84FF47500704720
:102BF0000246074803681342FCD021B1054B064842
:102C00001B680B600360054B00201A60704700BF13
:102C1000001A84500411845008118450081A8450FA
:102C200000F0A0B830B129B1002301440370013095
:102C30008142FBD1704700BF2DE9F041ADF51A7D0F
:102C40000F4605920021144612A84FF408721E4642
:102C500001F061F8002308A819462822069301F024
:102C60005AF8002F3CD0002E3AD0002C38D0042146
:102C700006A8FFF7C9FE08A82821FFF7C5FE08A887
:102C800000F032F878B14FF0FF3512A84FF4087118
:102C9000FFF7C8FF06A80421FFF7C4FF28460DF57B
:102CA0001A7DBDE8F08112AB0DF11C080390CDE94F
:102CB0000163024605AB08A9CDF8008006A800F024
:102CC000E9FC0028DFD13368A342DCD3D8F8001038
:102CD0000546083138462246FFF794FE3460D4E7B3
:102CE0004FF0FF35DAE700BF1C2330B583B002A9EF
:102CF00041F8043D044600F0B1F90546D8B9019BFE
:102D00001C2B1BD1D4E9003201210033E16118BF33
:102D100001230AB143F00203A26832B9E268AAB9FA
:102D2000C4E908323BB90D4D09E0E26843F0040301
:102D300062B9C4E90832284603B030BD084D2046C8
:102D40001C21FFF761FE284603B030BD0022284653
:102D500043F00803C4E9083203B030BD0E0CF000A4
:102D6000370CF00010B50C4C236813B10B4B1B68EB
:102D70006BB900F031F938B10138062896BF084B1D
:102D8000084853F8200010BD0122044B1A600123AB
:102D90000020236010BD00BF880700208C070020A2
:102DA0001C440000FE8FFFFF10B5094C23681BB1C7
:102DB00001230020236010BD00F07CF80028F7D02C
:102DC0000138062896BF034B034853F8200010BD76
:102DD000880700201C440000FE8FFFFFBFF34F8FC9
:102DE0000549064BCA6802F4E0621343CB60BFF3A7
:102DF0004F8F00BFFDE700BF00ED00E00400FA05C3
:102E0000014B5B68184700BF44000020024BD0E92B
:102E10000012C3E90012704744000020704700BF51
:102E200010B5044620B1BFF35F8F0020206010BDB5
:102E30000348FFF7E5FFBFF35F8F0020206010BD60
:102E40005C44000010B5044610B10023236010BD9F
:102E50000248FFF7D5FF0023236010BD384400006F
:102E600050B10122D0E8EF3FC0E8E12F0029F9D1AD
:102E7000012BF7D0BFF35F8F0020704770B40B4B6E
:102E80000668C268D0E90154C3E90242C3E900659B
:102E9000D1E903020E68064BD1E90154C3E900658C
:102EA000C3E902401A6170BC704700BF4C000020AB
:102EB0005C00002010B5FFF77DFE70B9FFF7A8FD9C
:102EC00080B9FFF735FE80B9114B1B681B0EF02B44
:102ED0000DD00624FFF770FE00E00324FFF7C6FDC7
:102EE000204610BD0424204610BD0024F2E7094A04
:102EF000094B12689A4201D00724EBE70120FFF743
:102F000017FE0028F1D1054B04461860E8E700BF22
:102F100028198450241A84500000E0200C1A845090
:102F200030B5ADF5157D4FF4087200210CA800F006
:102F3000F2FE002302A819462822019300F0EBFEBE
:102F400002A8FFF7D1FE18B105200DF5157D30BDA3
:102F50001C4D4FF0FF312868FFF7BAFD0446F0B969
:102F60000020FFF7E5FDB0B90CAA02A901A800F006
:102F7000D5FB04460120FFF7DBFDF0B92868FFF719
:102F8000AFFD10B11048FFF73BFF2046002CDBD10E
:102F90000DF5157D30BD0D48FFF732FFE4E70C4815
:102FA000FFF72EFF012CDBD12868FFF799FD0028E1
:102FB000CAD00548FFF724FFC6E70648FFF720FF01
:102FC000DCE700BF4000002094440000AC44000057
:102FD0007C440000CC44000008B5FFF7EBFD18B1BD
:102FE000FFF744FD032008BDFFF712FD68B9FFF7A6
:102FF0009FFD60B9154B1B681B0EF02B12D0FFF71D
:10300000DBFDFFF733FD062008BD042008BDFFF7F8
:10301000D3FDFFF72BFDFFF783FF00280CBF002037
:10302000052008BD0A4A0B4B12689A4205D0FFF7EB
:10303000C3FDFFF71BFD072008BD0120FFF778FD4A
:103040000028E4D1044B1860E5E700BF281984503C
:10305000241A84500000E0200C1A845018B111B1D9
:103060000B681C2B01D0012070474FF47F033A4AB4
:10307000D3F8101C91425AD0D3F8102C013256D0FC
:10308000D3F8102C4FF47F030260D3F8141C334A9A
:1030900091425ED0D3F8142C01325AD0D3F8142CBC
:1030A0004FF47F034260D3F8182C12F5947F4DD073
:1030B000D3F8182C013249D0D3F8182C4FF47F03E1
:1030C0008260D3F81C1C264A91423CD0D3F81C2CB9
:1030D000013238D0D3F81C2C4FF47F03C260D3F8F0
:1030E000002C70322DD0D3F8002C013229D0D3F827
:1030F000002C4FF47F030261D3F8042CAF321ED0B2
:10310000D3F8042C01321AD0D3F8042C4FF47F03E7
:103110004261D3F8081C134A91420BD0D3F8082C13
:10312000013207D0D3F8083C83610020704740F695
:10313000FC02A7E740F23733836100207047512239
:10314000E4E79022D5E742F60412C5E740F6D862DC
:10315000B4E742F2D002A3E7FCF8FFFFD020FFFF64
:103160000429FFFF37F3FFFFA8B32DE9F0414C1E00
:10317000B4F5047F2CD25BB352B34FF0000CC900FE
:10318000E646654664464F1E03F1FF380CE0AB424D
:1031900016D08E4501D10CF1010CA84516D0013492
:1031A000BC4205F1010518D8610950F8211004F05E
:1031B0001F06F1401F2E18BF01F00101002CE6D1BF
:1031C0000025A8458E464FF0010CE8D16245E6D2B5
:1031D0000348BDE8F081024870470020BDE8F08157
:1031E000370CF1002DE9F04F8FB00D46DDE91941A4
:1031F0008346002957D12969039100211C60189B3F
:103200001960002A00F02281814A824B11686A6AA3
:103210001B689A4257D10A2955D19BF8033006936F
:103220000399042308467C4A0293A2FB00029208F9
:10323000CB0002EB420204F10800A1EB4202013B89
:10324000DFF8D091DFF800A2049000920593189B5C
:10325000039C1C60002C00F0CC800026049F00F032
:10326000A9FA00230793069BBBF1000F3AD0002D6B
:1032700034D053BB5B000693BBF1000F36D0002D5A
:1032800034D0E3B106A9284600F084FA002800F003
:103290007D81624B984212D0009000F08BFA00982A
:1032A0000FB0BDE8F08F4FF47F01D1F80C0C013066
:1032B0000CBF4FF40471D1F80C1C03919DE72B6AED
:1032C00073B95648E8E75648E6E706A9284600F0ED
:1032D00061FA68B1534B9842DED0069B082BC9D1E6
:1032E0005148D9E7082BFBD05B0006934F48D3E742
:1032F0002946069800F030FA0028EBD1069B082BEF
:1033000000F00E81042B00F03181A3F10203B3FA27
:1033100083F35B09019301231946454A136042F880
:10332000843C434B19606B6AC9F80030D9F800201F
:103330006B6A9A42F5D14FF000084FF0FF30CAF89F
:103340000080FFF73BFC3B4A3B4B40461A60FFF7CF
:1033500043FC0A22019839492D4B08601A602A69FA
:10336000A8F15538A8FB02126B6A120903EB43035C
:10337000DB0303FB02F3324A9B0913600123CAF803
:1033800000300699DBF800200B0243EA016322F0CB
:103390007F421343CBF8003007A800F0CDF9002896
:1033A00098D1284BA8FB04281A681433089253F8C4
:1033B000102CB6EB980F099253F80C2C0A9253F884
:1033C000082C0B9253F8042C0C921B680D9301D11E
:1033D000009B9BB93846182208A9FFF713FB183C3D
:1033E00018370136002C7FF43AAF049B002B40F0D5
:1033F0009A800023189A1360069B6FE71A46384696
:1034000008A9E41AFFF7FEFA009B1F44E9E700BF92
:103410003811845030118450ABAAAAAA310CF100A3
:10342000300CF100020CF100320CF100350CF1000F
:10343000C4118450FEFFFF0F001184500C11845002
:10344000D8118450141184502C118450BBF1000FFA
:103450003FF44CAF002D3FF449AF01230EA941F8D2
:10346000203DCBF80020284600F094F900287FF496
:1034700013AF2946069800F06FF900287FF40CAFCF
:10348000069F082F00F0EB80042F00F0EA80A7F1E0
:103490000207B7FA87F77F0901221646734B744972
:1034A0001A6018460A60943B06606A6A1A601968D6
:1034B0006A6A9142F8D14FF000086E4B4FF0FF302E
:1034C000C3F80080FFF77AFB6B4B6C4A40461A60EA
:1034D000FFF782FB0A226A496A4B0F601A601A9949
:1034E0002B6901296A6A00F0B1806749A1FB0313C7
:1034F0001B09012102EB4202D20303FB02F3634AE0
:103500009B0913605B4B19600699DBF800200B02E6
:1035100043EA016322F07F421343CBF800307FE699
:1035200003230193F7E6039BB3F5047F3FF661AFF6
:10353000DDE9047C204623466E6904E00120013366
:103540006345144615D85A0957F8222003F01F0185
:10355000CA401F2918BF02F00102002BEED0A24280
:10356000ECD101308642EAD149480BE002230193B5
:10357000D1E64FF48063DDE90310AA69FFF7F4FD9B
:1035800000285DD00023189A1360A3E62946069808
:1035900000F0E2F800287FF47CAE069C082C51D0A5
:1035A000042C51D0A4F10204B4FA84F46409012378
:1035B0001E4619462D4A136042F8843C2B4B196075
:1035C0006B6AC9F80030D9F800206B6A9A42F5D1CD
:1035D00000274FF0FF30CAF80070FFF7EFFA264BD4
:1035E000264A38461A60FFF7F7FA0A222449254B83
:1035F0000C601A602A6924496B6AA1FB021203EB72
:1036000043031209DB0303FB02F3204A9B09136007
:10361000CAF80060069BDBF800101A0242EA036356
:1036200021F07F421A43130A03F47F03134323F06C
:103630007F43CBF80030029B013B02937FF407AE3F
:10364000002029E60324B2E70224B0E74FF47F0309
:10365000D3F80C1C013106D0D3F80C3C45E7032706
:103660001AE7022718E7162343E700BFC411845066
:10367000401184502C11845000118450FEFFFF0F24
:103680000C11845038118450ABAAAAAAD8118450C6
:10369000360CF1002DE9F0431B4C85B00746DDE9FF
:1036A0000D56884620684FF0FF319146FFF710FA1B
:1036B00028BB0020FFF73CFAE8B90023CDE900560B
:1036C00002934A46414638460C9BFFF78BFD054660
:1036D0000120FFF72DFA50B92068FFF701FA10B169
:1036E0000A48FFF78DFB284605B0BDE8F08308487F
:1036F000FFF786FBF0E70748FFF782FBDDE70648A8
:10370000FFF77EFBD5E700BF400000209444000097
:10371000CC440000AC4400007C44000010B50124FF
:1037200086B005ABCDE901240093002204ABFFF77E
:1037300059FD06B010BD00BF08B501464FF48060CA
:10374000FFF750FA00230249024A0B60136008BDDC
:10375000C81184502C1184500138072815D8DFE88F
:1037600000F0100C140814141404CB6800204B62F1
:1037700070478B6800204B6270474B6800204B629B
:1037800070470B6800204B6270470148704700BFCC
:10379000310CF1000B6802E0082B0B6006D8026ABE
:1037A00013424FEA4303F7D00020704700487047A8
:1037B000310CF10000230449044A0B604FF480608F
:1037C0001360FFF7FBB900BF2C118450C411845063
:1037D00008B5FDF711FBBDE80840FDF7A3BA0020CE
:1037E000704770B50D4604464520A0472946522033
:1037F000A04729462346BDE87040522018470FB421
:1038000007B504A951F8040B0191FDF7AFF803B017
:103810005DF804EB04B07047044608B5084611464D
:103820001A46A047FEF746FFFDF740FF036803EB8B
:10383000C1018368B3F5004F2CBF51F8220031F865
:103840001200704710B50468806804EBC101B0F540
:10385000004F2CBF41F8223021F8123010BD2DE965
:10386000F041044600220D46FFF7E0FFE268A3683E
:103870001040B3F5004FB0FA80F234BF00200120B1
:103880006368C0F11F00801A03EBC0014A68561C30
:103890004E60A2B9012202FA00F162690A43626134
:1038A000294643F8305002222B462046FFF7CAFF34
:1038B000032229462046BDE8F041FFF7C3BF53F875
:1038C0003070022239462046FFF7B0FF0646034615
:1038D000022229462046FFF7B5FF3B460322294630
:1038E0002046FFF7AFFF032231462B462046FFF765
:1038F000A9FF02223946DDE7F8B58B1847F6FF72BB
:10390000CC1D24F0070423F007031B1BDB08B3F5D1
:10391000004F2CBF6FF0004111460460002093421D
:10392000E16094BF00210121B3FA83F61746844673
:10393000C1F1200104F11805891B21F06041C4E99F
:1039400001530331246060612161A268BA4294BFCF
:1039500000220122C2F11F02921B90420ADD204682
:103960005B1A0022FFF76EFF20462169BDE8F84090
:10397000FFF775BFC5F804C0013045F808CBE4E790
:103980007047FEF713B90C22C368C9B202FB0131BC
:103990004B7A23B9087AB0FA80F0400970470220C8
:1039A000704770B5C9B24468C5684FF02003EFF3A3
:1039B000118683F31188BFF36F8F0C224A43AB1833
:1039C000187A90B10138C0B2187288B904EB81013D
:1039D000A850CA78012102F1502258601160587233
:1039E00086F31188BFF36F8F70BD6FF04400F7E767
:1039F0000020F5E72DE9F8434668D0F80CE0CFB297
:103A00004AB10C237B435EF803309A4252D013B183
:103A10001B68002BF9D14FF02003EFF3118C83F3D7
:103A20001188BFF36F8F0C257D430EEB05031C7AC5
:103A30000134E4B21C728CF31188BFF36F8F5AB358
:103A40004FF0502C4FF00308CCF8088393F809C0CE
:103A5000BCF1000F15D14FF02008EFF3118988F366
:103A60001188BFF36F8FC2F800C0D3F80480B8F19B
:103A7000000F1BD15A604EF8052089F31188BFF35F
:103A80006F8F4FF050230325C3F80453BCF1000F90
:103A900002D0D2E901329847012C05D106EB870606
:103AA000B37803F150231C60002005E0C8F8002023
:103AB0005A60E2E76FF00F00BDE8F8830022FFF7DD
:103AC00099BF10B50022044601210520FDF7E6FB51
:103AD0000520FDF7D3FB4FF050230222C3F8182531
:103AE00003220020C3F80423E368C3E90000E3686D
:103AF000C3E9030010BD70477047002307B501A854
:103B00008DF80430FFF78CF803B05DF804FB9029C2
:103B100008B5134639D10A4601460020FFF78CF854
:103B2000BDE80840714672467346B7EE000AF7EEEC
:103B3000000AB7EE001AF7EE001AB7EE002AF7EE09
:103B4000002AB7EE003AF7EE003AB7EE004AF7EE79
:103B5000004AB7EE005AF7EE005AB7EE006AF7EEE9
:103B6000006AB7EE007AF7EE007A8EF3008C10B49C
:103B7000F1EE10CA4FF66074C0F6FF740CEA040C44
:103B8000E1EE10CA10BCF44674476FF01500C7E7A9
:103B9000FEE70021012000F029B843B2A9B1002BB3
:103BA00012DB01215B099B0003F1604303F56143D4
:103BB000D3F8802200F01F0001FA00F022EA000092
:103BC000C3F88002D3F880327047002BFCDB01225F
:103BD0005B099B0003F1604303F56143D3F8801256
:103BE00000F01F0002FA00F00843E9E700F0C3B854
:103BF0000146006800F0BFB808B5FDF7B1FBBDE8AD
:103C00000840FDF727BD30B54B680C6885B00A89C0
:103C10008D7A0094013B24F01F04234402F01F021C
:103C200042EA451223F01F030F2804468DF80820AE
:103C3000039305D86946FDF789FD204605B030BDE0
:103C40006FF01504F9E740E800F0C3B210F4803FCC
:103C500014BF18466FF0150070470138013910F88D
:103C6000013F11F8012F934201D1002BF7D1981A8F
:103C7000704710B55AB10139841810F8012B11F8AA
:103C8000013FA04201D09A42F7D0D01A10BD104691
:103C9000FCE7431A934210B500EB020308D3024637
:103CA00001399A420BD011F8014F02F8014BF8E7A5
:103CB0000A4412F8014D8A4203F8014DF9D110BDB2
:103CC000F0B581EA0004A50703460BD0013B0A4486
:103CD00091421BD1F0BD002AFCD011F8014B013AF2
:103CE00003F8014B9C07F6D122F003041D1F960830
:103CF0000F19B94205D16FF00305234405FB0622D5
:103D0000E4E751F804CB45F804CFF2E711F8014B92
:103D100003F8014FDCE7034670B5C9B29C0711D127
:103D200041EA012422F0030644EA04451E449408B3
:103D3000B3420DD16FF0030505FB04221A449342F0
:103D400009D170BD002AFCD003F8011B013AE5E758
:103D500043F8045BECE703F8011BF0E7002008B52B
:103D6000FDF786FC08B5FDF7A1F9FDF723FABDE8DC
:103D70000840FFF719B873B5054601914FF02003CD
:103D8000EFF3118683F31188BFF36F8FFEF792FC78
:103D9000019904462846FFF7E1FF86F31188BFF337
:103DA0006F8F204602B0BDE87040FDF77FBCFFF783
:103DB000A3BE30B50024846141EA020414F0030478
:103DC000C0E9023201610CD14461A34203D1C0E9D0
:103DD0000000002030BD456901340D60416111448F
:103DE000F3E76FF01500F5E70023C0E90000C0E934
:103DF00002331846704721B9EFF3058008B9FDF783
:103E0000EFB981F31188BFF36F8F7047034620B974
:103E1000EFF305820AB9FDF7E3B983F31188BFF325
:103E20006F8F70474FF02003EFF3118083F31188F9
:103E3000BFF36F8FFFF7EABF0368984204D0002BEF
:103E400038BF0023184670470020704710B54FF068
:103E50002003EFF3118483F31188BFF36F8FFEF714
:103E60005BFA84F31188BFF36F8F10BD38B550F83B
:103E7000103C0446A0F11801C3B14FF02003EFF34A
:103E8000118583F31188BFF36F8F50F8100CFEF784
:103E9000EDF914F80B3C23F0020304F80B3C00236B
:103EA00044F8103C85F31188BFF36F8F14F80B3C76
:103EB000084623F0140304F80B3CBDE83840FFF734
:103EC000C5BF38B504460D46FEF750FB637B43F093
:103ED00002036373C5B12B68A5609D4208BF002330
:103EE000002B38BF002383B194F90E1093F90E20F4
:103EF000914204DB6A689A4207D01B68F3E75A686C
:103F0000C4E9003214605C6038BD6B682560636092
:103F10006B681C606C60F7E738B54FF02003EFF377
:103F2000118283F31188BFF36F8FFFF785FF04467B
:103F300082F31188BFF36F8FC8B14FF02003EFF306
:103F4000118583F31188BFF36F8F01468068FEF7F8
:103F50008DF9637B23F0020363730023A36085F371
:103F60001188BFF36F8F04F1180000F004F82046A9
:103F700038BDFCF71DBD10B54FF02002EFF31184E2
:103F800082F31188BFF36F8F03683BB1FEF72AFC01
:103F9000002084F31188BFF36F8F10BD6FF0150000
:103FA000F7E710B54FF02003EFF3118483F3118886
:103FB000BFF36F8FFEF72AFC84F31188BFF36F8F76
:103FC00010BD37B5044601914FF02003EFF3118582
:103FD00083F31188BFF36F8FFEF718FC012805DD0E
:103FE000A042019902DD2046FCF798FD85F3118877
:103FF000BFF36F8F03B030BD10B400F10C04C0E903
:1040000003445DF8044BFFF777BC704760C2FF7F45
:10401000010000008909000000000000491F0000A5
:1040200000000000E129000000000000DD18000091
:1040300000000000C33A000070000020B50A000034
:1040400080000020653D000090000020D51A00008F
:104050000000000000000000933B00000000000092
:10406000933B000000000000933B000000000000B4
:10407000933B000000000000933B000000000000A4
:10408000150A000000000000933B00000000000043
:10409000933B000000000000933B00000000000084
:1040A000933B000000000000933B00000000000074
:1040B000933B000000000000933B00000000000064
:1040C000933B000000000000933B00000000000054
:1040D000933B000000000000933B00000000000044
:1040E000933B000000000000933B00000000000034
:1040F000933B000000000000933B00000000000024
:10410000910A000000000000933B00000000000046
:10411000933B000000000000933B00000000000003
:10412000933B000000000000933B000000000000F3
:10413000933B000000000000933B000000000000E3
:10414000933B000000000000933B000000000000D3
:10415000933B000000000000933B000000000000C3
:10416000933B000000000000933B000000000000B3
:10417000933B000000000000933B000000000000A3
:10418000933B000000000000933B00000000000093
:10419000933B000000000000933B00000000000083
:1041A000933B000000000000933B00000000000073
:1041B000933B000000000000933B00000000000063
:1041C000933B000000000000933B00000000000053
:1041D000933B000000000000933B00000000000043
:1041E000933B000000000000933B00000000000033
:1041F000933B000000000000933B00000000000023
:10420000933B000000000000933B00000000000012
:10421000933B000000000000933B00000000000002
:10422000933B000000000000933B000000000000F2
:10423000933B000000000000933B000000000000E2
:10424000933B000000000000933B000000000000D2
:10425000933B000000000000933B0000FFFFFFFFC6
:10426000DEE61E284CBBCE8F025B0000DEE61E2879
:10427000EAAC45B8025B0000DEE61E284CBBCE8FE0
:10428000025B0000000000000000000000000000D1
:104290000338FDD870470000BD3A0000A339000084
:1042A000F53900000000000087390000A746000033
:1042B00042010000AE46000005010000B8460000C3
:1042C00014010000C146000015010000CA460000AC
:1042D00039010000D346000009010000DE4600005D
:1042E0000A010000E94600000A010000F346000050
:1042F0000B010000FD4600000F0100000847000010
:104300001001000013470000110100001E470000CB
:104310000E01000028470000210100003147000085
:10432000220100003A47000023010000434700003B
:10433000240100004C470000180100005447000011
:104340002A0100005C4700003A01000064470000B9
:104350002C0100006C4700001C01000075470000A4
:104360001D0100007E470000170100008847000083
:10437000310100009447000004010000000000002B
:10438000000200000004000000080000001000000F
:1043900000000000913B000019110000D91000003E
:1043A00081110000B91000001C0000200400002052
:1043B00014000020000000000C000020020000009B
:1043C000C443000000000000F647000006000000A3
:1043D000E0FF0F0000000020FE4700002100000069
:1043E000E0FF0020144000003C400000444000007A
:1043F0005440000054400000F5FFFFFF436F756C10
:1044000064206E6F74206C6F636B20706F776572C1
:104410002073617665206D7574657800FF8FFFFFEE
:10442000FF8FFFFFFE8FFFFFFE8FFFFFFD8FFFFF60
:10443000FC8FFFFFFC8FFFFF43616E277420696EC6
:10444000697469616C697A65206D757465782C2072
:10445000776173204E554C4C0D0A000043616E2766
:104460007420756E6C6F636B206D757465782C208D
:10447000776173204E554C4C0D0A00004661696C03
:1044800020746F2061637175697265206D75746544
:10449000780A00004661696C20746F2072656C6553
:1044A000617365206D757465780A00004661696CFA
:1044B00020746F20696E63726561736520504D20B2
:1044C000636F756E7465720A000000004661696C66
:1044D00020746F20646563726561736520504D20A0
:1044E000636F756E7465720A0000000100040401B8
:1044F000080C7379735F636C6F636B00536563754E
:1045000072650909004E6F6E2D53656375726509FA
:104510000025303275202530327520307825303531
:1045200078203078253035782009002563005350F5
:104530004D3A204E5320696D6167652061742030CB
:104540007825780A0053504D3A204E53204D535051
:1045500020617420307825780A0053504D3A204E5F
:104560005320726573657420766563746F72206181
:104570007420307825780A0053504D3A20707265C7
:104580007061726520746F206A756D7020746F2081
:104590004E6F6E2D53656375726520696D61676539
:1045A0002E0A004E6F6E2D53656375726500466C62
:1045B00061736820726567696F6E730909446F6D76
:1045C00061696E09095065726D697373696F6E7305
:1045D0000A004E6F6E2D7365637572652063616CA2
:1045E0006C61626C6520726567696F6E2030207047
:1045F0006C6163656420696E20666C61736820720B
:104600006567696F6E202564207769746820736917
:104610007A652025642E0A00436F756C64206E6FE6
:104620007420696E697469616C697A652073656369
:10463000757265207365727669636573202865728B
:1046400072202564292E0A005352414D207265675D
:10465000696F6E0909446F6D61696E090950657271
:104660006D697373696F6E730A0050657269706863
:104670006572616C0909446F6D61696E0909537453
:10468000617475730A002530327520252D3231731F
:1046900025730009534B49500A00094552524F52A5
:1046A0000A00094F4B0A004E52465F5030004E52EE
:1046B000465F434C4F434B004E52465F525443308B
:1046C000004E52465F52544331004E52465F4E56A2
:1046D0004D43004E52465F554152544531004E52B3
:1046E000465F554152544532004E52465F54574939
:1046F0004D32004E52465F5350494D33004E5246A4
:104700005F54494D455230004E52465F54494D4525
:104710005231004E52465F54494D455232004E527E
:10472000465F5341414443004E52465F50574D301F
:10473000004E52465F50574D31004E52465F505723
:104740004D32004E52465F50574D33004E52465F39
:10475000574454004E52465F495043004E52465F04
:10476000564D43004E52465F465055004E52465FEE
:1047700045475531004E52465F45475532004E522F
:10478000465F4450504943004E52465F4750494FA0
:10479000544531004E52465F524547554C41544FA7
:1047A0005253006D757465785F696E69742063613A
:1047B0006C6C65642077697468204E554C4C207091
:1047C0006172616D6574657200436F756C64206E13
:1047D0006F7420616C6C6F63617465206D757465B6
:1047E00078206265666F726520696E697469616CB4
:1047F000697A696E6700464C4153485F30005352F6
:10480000414D5F30004552524F523A2043616E6E27
:104810006F742066756C66696C6C204558545F41F6
:10482000504920726571756573742E0D0A005741E9
:10483000524E494E473A204F7074696F6E616C203A
:104840004558545F415049207265717565737420F5
:104850006E6F742066756C66696C6C65642E0D0AEB
:104860000048575F43433331305F30006D61696EFC
:104870000000000000000000DF370000B40000204E
:1048800001000000C800002001000000DC00002042
:1048900001000000F0000020010000000090D003A3
:1048A0002800002028000020600000206C0000206C
:1048B000640000205C0000203800002000000000A0
:1048C000DD2D0000452E00001D2E0000612E000091
:1048D000212E00009C070020900700209807002050
:1048E0000000000094070020B2460000EA440000E7
:1048F0009842000010010020F24400000000000077
:1049000000000000000000006148000000000000FE
:104910000000000000000000A0000020A000002017
:1049200000000000000000000F000000B4000020A4
:10493000B400002000000000000000000F00000094
:10494000C8000020C8000020000000000000000097
:104950000F000000DC000020DC0000200000000050
:10496000000000000F000000F0000020F000002018
:1049700000000000000000000F000000FFFFFFFF2C
:104980000000000000000000000000000000000027
:104990000000000000000000000000000000000017
:1049A0000000000000000000000000000000000007
:1049B00000000000000000000000000000000000F7
:107FE0007FE97FE9F8F7A0BF7FE97FE9F8F7F4BF01
:107FF0007FE97FE9FBF78BBD000000000000000077
:10C0000050DB02204D400100414002007D40010014
:10C010007D4001007D4001007D4001007D40010028
:10C02000000000000000000000000000BD3F010013
:10C030007D40010000000000193F0100793F02002F
:10C040000D4001000D4001000D4001000D400100B8
:10C050000D4001000D4001000D4001000D400100A8
:10C060000D4001000D4001000D4001000D40010098
:10C070000D4001000D4001000D4001000D40010088
:10C080000D4001000D4001000D4001000D40010078
:10C090000D4001000D4001000D4001000D40010068
:10C0A0000D4001000D4001000D4001000D40010058
:10C0B000DD590100E75402000D4001000D40010070
:10C0C0000D4001000D4001000D4001000D40010038
:10C0D0000D4001000D4001000D4001000D40010028
:10C0E0000D4001000D400100055502000D4001000A
:10C0F0000D4001000D4001000D4001000D40010008
:10C100000D4001000D4001000D4001000D400100F7
:10C110000D4001000D4001000D4001000D400100E7
:10C120000D4001000D4001000D4001000D400100D7
:10C130000D4001000D4001000D4001000D400100C7
:10C140000D400100000000000000000000000000A1
:10C1500000000000000000000000000000000000DF
:10C1600000000000000000000000000000000000CF
:10C1700000000000000000000000000000000000BF
:10C1800000000000000000000000000000000000AF
:10C19000000000000000000000000000000000009F
:10C1A000000000000000000000000000000000008F
:10C1B000000000000000000000000000000000007F
:10C1C000000000000000000000000000000000006F
:10C1D000000000000000000000000000000000005F
:10C1E000000000000000000000000000000000004F
:10C1F000000000000000000000000000000000003F
:10C20000DEE61E284CBBCE8F025B00003C00000027
:10C21000E4F001000100000000C0000000C00000C8
:10C22000FFFF02910000000000000000000000007D
:10C23000000000000000000000000000FFFFFFFF02
:10C2400081F0004102E000BF83F0004330B54FEAC7
:10C2500041044FEA430594EA050F08BF90EA020F34
:10C260001FBF54EA000C55EA020C7FEA645C7FEAC7
:10C27000655C00F0E2804FEA5454D4EB5555B8BFEA
:10C280006D420CDD2C4480EA020281EA030382EA5B
:10C29000000083EA010180EA020281EA0303362DED
:10C2A00088BF30BD11F0004F4FEA01314FF4801CC0
:10C2B0004CEA113102D0404261EB410113F0004FD2
:10C2C0004FEA03334CEA133302D0524263EB430389
:10C2D00094EA050F00F0A780A4F10104D5F1200E27
:10C2E0000DDB02FA0EFC22FA05F2801841F1000182
:10C2F00003FA0EF2801843FA05F359410EE0A5F156
:10C3000020050EF1200E012A03FA0EFC28BF4CF086
:10C31000020C43FA05F3C01851EBE37101F000453C
:10C3200007D54FF0000EDCF1000C7EEB00006EEB49
:10C330000101B1F5801F1BD3B1F5001F0CD34908D3
:10C340005FEA30004FEA3C0C04F101044FEA44522A
:10C3500012F5800F80F09A80BCF1004F08BF5FEAB1
:10C36000500C50F1000041EB045141EA050130BD91
:10C370005FEA4C0C404141EB0101013C28BFB1F5A3
:10C38000801FE9D291F0000F04BF01460020B1FAEE
:10C3900081F308BF2033A3F10B03B3F120020CDAC1
:10C3A0000C3208DD02F1140CC2F10C0201FA0CF09F
:10C3B00021FA02F10CE002F11402D8BFC2F1200C04
:10C3C00001FA02F120FA0CFCDCBF41EA0C019040BA
:10C3D000E41AA2BF01EB0451294330BD6FEA040403
:10C3E0001F3C1CDA0C340EDC04F11404C4F12002EE
:10C3F00020FA04F001FA02F340EA030021FA04F300
:10C4000045EA030130BDC4F10C04C4F1200220FA56
:10C4100002F001FA04F340EA0300294630BD21FA94
:10C4200004F0294630BD94F0000F83F4801306BF5A
:10C4300081F480110134013D4EE77FEA645C18BF4E
:10C440007FEA655C29D094EA050F08BF90EA020FE5
:10C4500005D054EA000C04BF1946104630BD91EADD
:10C46000030F1EBF0021002030BD5FEA545C05D1E0
:10C470004000494128BF41F0004130BD14F580041F
:10C480003CBF01F5801130BD01F0004545F0FE4193
:10C4900041F470014FF0000030BD7FEA645C1ABFC8
:10C4A000194610467FEA655C1CBF0B46024650EAFF
:10C4B000013406BF52EA033591EA030F41F400212B
:10C4C00030BD00BF90F0000F04BF0021704730B5B1
:10C4D0004FF4806404F132044FF000054FF0000186
:10C4E00050E700BF90F0000F04BF0021704730B547
:10C4F0004FF4806404F1320410F0004548BF40421C
:10C500004FF000013EE700BF42004FEAE2014FEA70
:10C5100031014FEA02701FBF12F07F4393F07F4F4B
:10C5200081F06051704732F07F4208BF704793F04E
:10C530007F4F04BF41F40021704730B54FF4607461
:10C5400001F0004521F000411CE700BF50EA010264
:10C5500008BF704730B54FF000050AE050EA01020D
:10C5600008BF704730B511F0004502D5404261EB7D
:10C5700041014FF4806404F132045FEA915C3FF4BE
:10C58000D8AE4FF003025FEADC0C18BF03325FEA5B
:10C59000DC0C18BF033202EBDC02C2F1200300FA0C
:10C5A00003FC20FA02F001FA03FE40EA0E0021FA31
:10C5B00002F11444BDE600BF53B94AB9002908BFCF
:10C5C00000281CBF4FF0FF314FF0FF3000F06CB976
:10C5D000ADF1080C6DE904CE00F006F8DDF804E0DA
:10C5E000DDE9022304B070472DE9F047089D0446B9
:10C5F0008846002B7DD18A4217463FD9B2FA82F293
:10C6000042B1C2F120009140974024FA00F09440DA
:10C6100040EA01084FEA174C230C1FFA87FEB8FBCB
:10C62000FCF60CFB168106FB0EF043EA0143984230
:10C6300005D9FB1802D2984200F22481013E191A52
:10C64000A3B2B1FBFCF00CFB101100FB0EFE43EAA1
:10C650000144A64505D93C1902D2A64500F20F8136
:10C66000013840EA0640A4EB0E0400261DB1D44078
:10C670000023C5E900433146BDE8F08702B9FFDE7B
:10C68000B2FA82F2002A50D1CB1B4FEA174E1FFAA2
:10C6900087F80126210CB3FBFEFC0EFB1C300B4679
:10C6A00008FB0CF941EA004189450AD979182CBFE9
:10C6B00001230023894502D9002B00F0D9800CF119
:10C6C000FF3CA1EB0901A3B2B1FBFEF00EFB101180
:10C6D00008FB00F843EA0144A04505D93C1902D201
:10C6E000A04500F2C9800138A4EB080440EA0C40E0
:10C6F000BCE78B4209D9002D00F0B1800026C5E9C6
:10C70000000130463146BDE8F087B3FA83F6002ECB
:10C7100046D18B42C0F0A680824240F2A3803046D0
:10C72000002DA8D0C5E90048A5E79740C2F1200335
:10C7300001FA02F04FEA174ED94024FA03F31FFA28
:10C7400087F894400343B1FBFEF01E0C0EFB101162
:10C7500000FB08FC46EA01418C4509D979182CBF39
:10C76000012600268C4502D9002E00F09380013866
:10C77000A1EB0C019BB2B1FBFEF60EFB161106FB02
:10C7800008FC43EA01418C4505D9791802D28C4551
:10C7900000F28780013EA1EB0C0346EA004679E7F0
:10C7A000C6F1200703FA06F402FA06FC01FA06FEB7
:10C7B000FA4020FA07F8F94000FA06F3224348EA63
:10C7C0000E044FEA12484FEA144E1FFA82F9B1FBE9
:10C7D000F8FA08FB1A110AFB09F04EEA014E7045FF
:10C7E0000AD912EB0E0E2CBF01210021704501D990
:10C7F000002952D00AF1FF3AAEEB000EA4B2BEFB04
:10C80000F8F008FB10EE00FB09F944EA0E4EF14582
:10C8100005D912EB0E0E01D2F14538D8013840EAA5
:10C820000A40AEEB090EA0FB0C89CE4541464C46B2
:10C8300002D306D1434504D20138B8EB0C0169EBB1
:10C84000020415B35A1A6EEB040EF2400EFA07F703
:10C850002EFA06F300261743C5E900730BE72E46B0
:10C86000284608E7841A61EB03010120884657E750
:10C87000ACF1020C394424E702383C4434E7023876
:10C880003C44EEE6023E3B44D9E62E46F3E602384F
:10C890009644C4E7023839446AE7AAF1020A96448A
:10C8A000AAE7023E394476E7704700BF70B54FF003
:10C8B000FF0C4CF4E06C1CEA11541DBF1CEA13552C
:10C8C00094EA0C0F95EA0C0F00F0DEF82C4481EA94
:10C8D000030621EA4C5123EA4C5350EA013518BFB4
:10C8E00052EA033541F4801143F4801338D0A0FBA1
:10C8F00002CE4FF00005E1FB02E506F00042E0FB4E
:10C9000003E54FF00006E1FB03569CF0000F18BF53
:10C910004EF0010EA4F1FF04B6F5007F64F54074FB
:10C9200004D25FEA4E0E6D4146EB060642EAC6218E
:10C9300041EA55514FEAC52040EA5E504FEACE2EFB
:10C94000B4F1FD0C88BFBCF5E06F1ED8BEF1004FFE
:10C9500008BF5FEA500E50F1000041EB045170BD7A
:10C9600006F0004646EA010140EA020081EA0301BE
:10C97000B4EB5C04C2BFD4EB0C0541EA045170BDBA
:10C9800041F480114FF0000E013C00F3AB8014F134
:10C99000360FDEBF002001F0004170BDC4F100047D
:10C9A000203C35DA0C341BDC04F11404C4F12005FE
:10C9B00000FA05F320FA04F001FA05F240EA020059
:10C9C00001F0004221F0004110EBD37021FA04F68F
:10C9D00042EB06015EEA430E08BF20EAD37070BD49
:10C9E000C4F10C04C4F1200500FA04F320FA05F0A8
:10C9F00001FA04F240EA020001F0004110EBD370AA
:10CA000041F100015EEA430E08BF20EAD37070BD19
:10CA1000C4F1200500FA05F24EEA020E20FA04F3F2
:10CA200001FA05F243EA020321FA04F001F00041A1
:10CA300021FA04F220EA020000EBD3705EEA430E12
:10CA400008BF20EAD37070BD94F0000F0FD101F041
:10CA50000046400041EB010111F4801F08BF013C7A
:10CA6000F7D041EA060195F0000F18BF704703F0B8
:10CA70000046520043EB030313F4801F08BF013D3F
:10CA8000F7D043EA0603704794EA0C0F0CEA1355FB
:10CA900018BF95EA0C0F0CD050EA410618BF52EAB5
:10CAA0004306D1D181EA030101F000414FF00000BB
:10CAB00070BD50EA410606BF1046194652EA4306C9
:10CAC00019D094EA0C0F02D150EA013613D195EA3D
:10CAD0000C0F05D152EA03361CBF104619460AD185
:10CAE00081EA030101F0004141F0FE4141F470018F
:10CAF0004FF0000070BD41F0FE4141F4780170BD7F
:10CB000070B54FF0FF0C4CF4E06C1CEA11541DBFE3
:10CB10001CEA135594EA0C0F95EA0C0F00F0A7F8E5
:10CB2000A4EB050481EA030E52EA03354FEA013112
:10CB300000F088804FEA03334FF0805545EA131325
:10CB400043EA12634FEA022245EA111545EA1065ED
:10CB50004FEA00260EF000419D4208BF964244F184
:10CB6000FD0404F5407402D25B084FEA3202B61AA3
:10CB700065EB03055B084FEA32024FF480104FF477
:10CB8000002CB6EB020E75EB030E22BFB61A7546EB
:10CB900040EA0C005B084FEA3202B6EB020E75EB7E
:10CBA000030E22BFB61A754640EA5C005B084FEAE6
:10CBB0003202B6EB020E75EB030E22BFB61A7546B3
:10CBC00040EA9C005B084FEA3202B6EB020E75EBBE
:10CBD000030E22BFB61A754640EADC0055EA060E7F
:10CBE00018D04FEA051545EA16754FEA06164FEAC2
:10CBF000C30343EA52734FEAC2025FEA1C1CC0D16E
:10CC000011F4801F0BD141EA00014FF000004FF0FA
:10CC1000004CB6E711F4801F04BF01430020B4F1BB
:10CC2000FD0C88BFBCF5E06F3FF6AFAEB5EB030C73
:10CC300004BFB6EB020C5FEA500C50F1000041EB70
:10CC4000045170BD0EF0004E4EEA113114EB5C043D
:10CC5000C2BFD4EB0C0541EA045170BD41F4801110
:10CC60004FF0000E013C90E645EA060E8DE60CEA18
:10CC7000135594EA0C0F08BF95EA0C0F3FF43BAF35
:10CC800094EA0C0F0AD150EA01347FF434AF95EAEC
:10CC90000C0F7FF425AF104619462CE795EA0C0FD0
:10CCA00006D152EA03353FF4FDAE1046194622E79D
:10CCB00050EA410618BF52EA43067FF4C5AE50EA77
:10CCC00041047FF40DAF52EA43057FF4EBAE12E767
:10CCD0004FF0FF3C06E000BF4FF0010C02E000BF48
:10CCE0004FF0010C4DF804CD4FEA410C7FEA6C5C2B
:10CCF0004FEA430C18BF7FEA6C5C1BD001B050EACE
:10CD0000410C0CBF52EA430C91EA030F02BF90EAB8
:10CD1000020F0020704710F1000F91EA030F58BF77
:10CD2000994208BF90422CBFD8176FEAE37040F0D9
:10CD3000010070474FEA410C7FEA6C5C02D150EA77
:10CD4000013C07D14FEA430C7FEA6C5CD6D152EA32
:10CD5000033CD3D05DF8040B704700BF84461046F7
:10CD600062468C461946634600E000BF01B5FFF7F6
:10CD7000B7FF002848BF10F1000F01BD4DF808EDC6
:10CD8000FFF7F4FF0CBF012000205DF808FB00BF97
:10CD90004DF808EDFFF7EAFF34BF012000205DF8F1
:10CDA00008FB00BF4DF808EDFFF7E0FF94BF01203E
:10CDB00000205DF808FB00BF4DF808EDFFF7CEFF3F
:10CDC00094BF012000205DF808FB00BF4DF808ED7E
:10CDD000FFF7C4FF34BF012000205DF808FB00BF4F
:10CDE0004FEA410C7FEA6C5C02D150EA013C0AD167
:10CDF0004FEA430C7FEA6C5C02D152EA033C02D159
:10CE00004FF0000070474FF0010070474FEA4102B9
:10CE100012F5001215D211D56FF47873B3EB62528C
:10CE200012D94FEAC12343F0004343EA505311F0B3
:10CE3000004F23FA02F018BF404270474FF0000045
:10CE4000704750EA013005D111F0004008BF6FF083
:10CE5000004070474FF00000704700BF10F8012BF2
:10CE600011F8013B012A28BF9A42F7D0D01A704727
:10CE7000034613F8012B002AFBD1181A013870471A
:10CE80002DE9F04F456A04462DED028B95B057EC25
:10CE9000106BDDF88080059109920F93CDE9026750
:10CEA0003DB9102015F07CFD60620560C560C0E9E9
:10CEB0000155636A196851B15A68012320469340AD
:10CEC0004A608B6019F0CDFF636A00221A603B1E36
:10CED000B7BF23F00043002301220393A8BFC8F883
:10CEE0000030DDF80C90B64BB8BFC8F8002033EA2C
:10CEF00009031BD142F20F730F9A1360C9F3130396
:10CF0000334300F07285219B63B9AE4B25E0AE4BF5
:10CF100000930833219A1360009815B0BDEC028B82
:10CF2000BDE8F08FA74B00930333F3E79DED027B41
:10CF30000022002351EC170B8DED0A7BFFF71EFF3B
:10CF4000804660B101230F9A1360219B002B00F0F3
:10CF500049859E4B219A1360013B0093DCE7C9F39E
:10CF60000A5512AA13A920469DED0A0B1AF0BBF927
:10CF70008246002D7CD00B9BA5F2FF35CDF840807A
:10CF8000C3F31303DDE90A6743F07F5747F4401703
:10CF900000228F4B30463946FFF756F982A3D3E97A
:10CFA0000023FFF783FC82A3D3E90023FFF74EF9A8
:10CFB00006460F462846FFF795FA7FA3D3E90023DC
:10CFC000FFF774FC02460B4630463946FFF73EF940
:10CFD00006460F46FFF71AFF00228146002330461F
:10CFE0003946FFF7D5FE48B14846FFF77BFA32468F
:10CFF0003B46FFF7C3FE08B909F1FF39B9F1160F37
:10D0000055D8744B03EBC903DDE90A01D3E90023CA
:10D01000FFF7BEFE00284CD009F1FF3900230E9324
:10D02000129B5D1B6B1E049345BF0023C5F10108D5
:10D030004FF000080493B9F1000F3CDB049BCDF8DE
:10D0400034904B44049300230693059B092B00F274
:10D050009980052BC5BF043B002501250593059B41
:10D06000023B032B00F29A80DFE803F02D7E7C8ADE
:10D07000DDE912531D4405F23243202BC6BFC3F134
:10D08000400305F21240C3F1200305F1FF35C5BF8F
:10D0900009FA03F326FA00F006FA03F01843FFF743
:10D0A00011FA01230646A1F1F877109370E70123E6
:10D0B000B5E70E90B4E7C9F10003A8EB09080693A1
:10D0C00000230D93C1E700230893099B002B00F375
:10D0D00085804FF0010B5B46CDF804B0CDF824B04D
:10D0E0000022666A7260042202F11400716898429C
:10D0F0007AD9204619F081FE636A30601B6800937C
